{
  "contractName": "kalonDAO",
  "abi": [
    {
      "anonymous": false,
      "inputs": [
        {
          "indexed": true,
          "internalType": "address",
          "name": "account",
          "type": "address"
        },
        {
          "indexed": true,
          "internalType": "address",
          "name": "operator",
          "type": "address"
        },
        {
          "indexed": false,
          "internalType": "bool",
          "name": "approved",
          "type": "bool"
        }
      ],
      "name": "ApprovalForAll",
      "type": "event"
    },
    {
      "anonymous": false,
      "inputs": [
        {
          "indexed": true,
          "internalType": "address",
          "name": "from",
          "type": "address"
        },
        {
          "indexed": false,
          "internalType": "uint256[]",
          "name": "coinIds",
          "type": "uint256[]"
        },
        {
          "indexed": false,
          "internalType": "uint256[]",
          "name": "amount",
          "type": "uint256[]"
        }
      ],
      "name": "CoinRetiredBatch",
      "type": "event"
    },
    {
      "anonymous": false,
      "inputs": [
        {
          "indexed": true,
          "internalType": "address",
          "name": "from",
          "type": "address"
        },
        {
          "indexed": true,
          "internalType": "address",
          "name": "to",
          "type": "address"
        },
        {
          "indexed": false,
          "internalType": "uint256[]",
          "name": "coinIds",
          "type": "uint256[]"
        },
        {
          "indexed": false,
          "internalType": "uint256[]",
          "name": "amount",
          "type": "uint256[]"
        }
      ],
      "name": "CoinTransferredBatch",
      "type": "event"
    },
    {
      "anonymous": false,
      "inputs": [
        {
          "indexed": false,
          "internalType": "uint256[]",
          "name": "ids",
          "type": "uint256[]"
        },
        {
          "indexed": false,
          "internalType": "uint8",
          "name": "coinTypeId",
          "type": "uint8"
        },
        {
          "indexed": true,
          "internalType": "address",
          "name": "issuedBy",
          "type": "address"
        },
        {
          "indexed": true,
          "internalType": "address",
          "name": "issuedTo",
          "type": "address"
        },
        {
          "indexed": false,
          "internalType": "uint256[]",
          "name": "fungibleCoins",
          "type": "uint256[]"
        }
      ],
      "name": "CoinsCreatedBatch",
      "type": "event"
    },
    {
      "anonymous": false,
      "inputs": [
        {
          "indexed": true,
          "internalType": "address",
          "name": "account",
          "type": "address"
        },
        {
          "indexed": false,
          "internalType": "uint256",
          "name": "userID",
          "type": "uint256"
        },
        {
          "indexed": false,
          "internalType": "string",
          "name": "username",
          "type": "string"
        }
      ],
      "name": "DeregisteredNormalUser",
      "type": "event"
    },
    {
      "anonymous": false,
      "inputs": [
        {
          "indexed": true,
          "internalType": "address",
          "name": "account",
          "type": "address"
        },
        {
          "indexed": false,
          "internalType": "uint256",
          "name": "userID",
          "type": "uint256"
        },
        {
          "indexed": false,
          "internalType": "string",
          "name": "username",
          "type": "string"
        }
      ],
      "name": "DeregisteredPremiumUser",
      "type": "event"
    },
    {
      "anonymous": false,
      "inputs": [
        {
          "indexed": true,
          "internalType": "address",
          "name": "_owner",
          "type": "address"
        },
        {
          "indexed": false,
          "internalType": "string",
          "name": "_ipfsHash",
          "type": "string"
        },
        {
          "indexed": false,
          "internalType": "string",
          "name": "_title",
          "type": "string"
        },
        {
          "indexed": false,
          "internalType": "string",
          "name": "_description",
          "type": "string"
        },
        {
          "indexed": false,
          "internalType": "uint256",
          "name": "_uploadTime",
          "type": "uint256"
        }
      ],
      "name": "ImageUploaded",
      "type": "event"
    },
    {
      "anonymous": false,
      "inputs": [
        {
          "indexed": false,
          "internalType": "uint8",
          "name": "version",
          "type": "uint8"
        }
      ],
      "name": "Initialized",
      "type": "event"
    },
    {
      "anonymous": false,
      "inputs": [
        {
          "indexed": true,
          "internalType": "address",
          "name": "account",
          "type": "address"
        },
        {
          "indexed": false,
          "internalType": "uint256",
          "name": "userID",
          "type": "uint256"
        },
        {
          "indexed": false,
          "internalType": "string",
          "name": "username",
          "type": "string"
        }
      ],
      "name": "RegisteredNormalUser",
      "type": "event"
    },
    {
      "anonymous": false,
      "inputs": [
        {
          "indexed": true,
          "internalType": "address",
          "name": "account",
          "type": "address"
        },
        {
          "indexed": false,
          "internalType": "uint256",
          "name": "userID",
          "type": "uint256"
        },
        {
          "indexed": false,
          "internalType": "string",
          "name": "username",
          "type": "string"
        }
      ],
      "name": "RegisteredPremiumUser",
      "type": "event"
    },
    {
      "anonymous": false,
      "inputs": [
        {
          "indexed": true,
          "internalType": "bytes32",
          "name": "role",
          "type": "bytes32"
        },
        {
          "indexed": true,
          "internalType": "bytes32",
          "name": "previousAdminRole",
          "type": "bytes32"
        },
        {
          "indexed": true,
          "internalType": "bytes32",
          "name": "newAdminRole",
          "type": "bytes32"
        }
      ],
      "name": "RoleAdminChanged",
      "type": "event"
    },
    {
      "anonymous": false,
      "inputs": [
        {
          "indexed": true,
          "internalType": "bytes32",
          "name": "role",
          "type": "bytes32"
        },
        {
          "indexed": true,
          "internalType": "address",
          "name": "account",
          "type": "address"
        },
        {
          "indexed": true,
          "internalType": "address",
          "name": "sender",
          "type": "address"
        }
      ],
      "name": "RoleGranted",
      "type": "event"
    },
    {
      "anonymous": false,
      "inputs": [
        {
          "indexed": true,
          "internalType": "bytes32",
          "name": "role",
          "type": "bytes32"
        },
        {
          "indexed": true,
          "internalType": "address",
          "name": "account",
          "type": "address"
        },
        {
          "indexed": true,
          "internalType": "address",
          "name": "sender",
          "type": "address"
        }
      ],
      "name": "RoleRevoked",
      "type": "event"
    },
    {
      "anonymous": false,
      "inputs": [
        {
          "indexed": true,
          "internalType": "address",
          "name": "operator",
          "type": "address"
        },
        {
          "indexed": true,
          "internalType": "address",
          "name": "from",
          "type": "address"
        },
        {
          "indexed": true,
          "internalType": "address",
          "name": "to",
          "type": "address"
        },
        {
          "indexed": false,
          "internalType": "uint256[]",
          "name": "ids",
          "type": "uint256[]"
        },
        {
          "indexed": false,
          "internalType": "uint256[]",
          "name": "values",
          "type": "uint256[]"
        }
      ],
      "name": "TransferBatch",
      "type": "event"
    },
    {
      "anonymous": false,
      "inputs": [
        {
          "indexed": true,
          "internalType": "address",
          "name": "operator",
          "type": "address"
        },
        {
          "indexed": true,
          "internalType": "address",
          "name": "from",
          "type": "address"
        },
        {
          "indexed": true,
          "internalType": "address",
          "name": "to",
          "type": "address"
        },
        {
          "indexed": false,
          "internalType": "uint256",
          "name": "id",
          "type": "uint256"
        },
        {
          "indexed": false,
          "internalType": "uint256",
          "name": "value",
          "type": "uint256"
        }
      ],
      "name": "TransferSingle",
      "type": "event"
    },
    {
      "anonymous": false,
      "inputs": [
        {
          "indexed": false,
          "internalType": "string",
          "name": "value",
          "type": "string"
        },
        {
          "indexed": true,
          "internalType": "uint256",
          "name": "id",
          "type": "uint256"
        }
      ],
      "name": "URI",
      "type": "event"
    },
    {
      "inputs": [],
      "name": "DEFAULT_ADMIN_ROLE",
      "outputs": [
        {
          "internalType": "bytes32",
          "name": "",
          "type": "bytes32"
        }
      ],
      "stateMutability": "view",
      "type": "function"
    },
    {
      "inputs": [],
      "name": "NORMAL_USER",
      "outputs": [
        {
          "internalType": "bytes32",
          "name": "",
          "type": "bytes32"
        }
      ],
      "stateMutability": "view",
      "type": "function"
    },
    {
      "inputs": [],
      "name": "PREMIUM_USER",
      "outputs": [
        {
          "internalType": "bytes32",
          "name": "",
          "type": "bytes32"
        }
      ],
      "stateMutability": "view",
      "type": "function"
    },
    {
      "inputs": [],
      "name": "admin",
      "outputs": [
        {
          "internalType": "address",
          "name": "",
          "type": "address"
        }
      ],
      "stateMutability": "view",
      "type": "function"
    },
    {
      "inputs": [
        {
          "internalType": "address",
          "name": "account",
          "type": "address"
        },
        {
          "internalType": "uint256",
          "name": "id",
          "type": "uint256"
        }
      ],
      "name": "balanceOf",
      "outputs": [
        {
          "internalType": "uint256",
          "name": "",
          "type": "uint256"
        }
      ],
      "stateMutability": "view",
      "type": "function"
    },
    {
      "inputs": [
        {
          "internalType": "address[]",
          "name": "accounts",
          "type": "address[]"
        },
        {
          "internalType": "uint256[]",
          "name": "ids",
          "type": "uint256[]"
        }
      ],
      "name": "balanceOfBatch",
      "outputs": [
        {
          "internalType": "uint256[]",
          "name": "",
          "type": "uint256[]"
        }
      ],
      "stateMutability": "view",
      "type": "function"
    },
    {
      "inputs": [
        {
          "internalType": "bytes32",
          "name": "role",
          "type": "bytes32"
        }
      ],
      "name": "getRoleAdmin",
      "outputs": [
        {
          "internalType": "bytes32",
          "name": "",
          "type": "bytes32"
        }
      ],
      "stateMutability": "view",
      "type": "function"
    },
    {
      "inputs": [
        {
          "internalType": "bytes32",
          "name": "role",
          "type": "bytes32"
        },
        {
          "internalType": "address",
          "name": "account",
          "type": "address"
        }
      ],
      "name": "grantRole",
      "outputs": [],
      "stateMutability": "nonpayable",
      "type": "function"
    },
    {
      "inputs": [
        {
          "internalType": "bytes32",
          "name": "role",
          "type": "bytes32"
        },
        {
          "internalType": "address",
          "name": "account",
          "type": "address"
        }
      ],
      "name": "hasRole",
      "outputs": [
        {
          "internalType": "bool",
          "name": "",
          "type": "bool"
        }
      ],
      "stateMutability": "view",
      "type": "function"
    },
    {
      "inputs": [
        {
          "internalType": "address",
          "name": "account",
          "type": "address"
        },
        {
          "internalType": "address",
          "name": "operator",
          "type": "address"
        }
      ],
      "name": "isApprovedForAll",
      "outputs": [
        {
          "internalType": "bool",
          "name": "",
          "type": "bool"
        }
      ],
      "stateMutability": "view",
      "type": "function"
    },
    {
      "inputs": [
        {
          "internalType": "address",
          "name": "",
          "type": "address"
        },
        {
          "internalType": "uint256",
          "name": "",
          "type": "uint256"
        }
      ],
      "name": "ownerMapImage",
      "outputs": [
        {
          "internalType": "string",
          "name": "ipfsHash",
          "type": "string"
        },
        {
          "internalType": "string",
          "name": "title",
          "type": "string"
        },
        {
          "internalType": "string",
          "name": "description",
          "type": "string"
        },
        {
          "internalType": "uint256",
          "name": "uploadTime",
          "type": "uint256"
        }
      ],
      "stateMutability": "view",
      "type": "function"
    },
    {
      "inputs": [
        {
          "internalType": "bytes32",
          "name": "role",
          "type": "bytes32"
        },
        {
          "internalType": "address",
          "name": "account",
          "type": "address"
        }
      ],
      "name": "renounceRole",
      "outputs": [],
      "stateMutability": "nonpayable",
      "type": "function"
    },
    {
      "inputs": [
        {
          "internalType": "bytes32",
          "name": "role",
          "type": "bytes32"
        },
        {
          "internalType": "address",
          "name": "account",
          "type": "address"
        }
      ],
      "name": "revokeRole",
      "outputs": [],
      "stateMutability": "nonpayable",
      "type": "function"
    },
    {
      "inputs": [
        {
          "internalType": "address",
          "name": "from",
          "type": "address"
        },
        {
          "internalType": "address",
          "name": "to",
          "type": "address"
        },
        {
          "internalType": "uint256[]",
          "name": "ids",
          "type": "uint256[]"
        },
        {
          "internalType": "uint256[]",
          "name": "amounts",
          "type": "uint256[]"
        },
        {
          "internalType": "bytes",
          "name": "data",
          "type": "bytes"
        }
      ],
      "name": "safeBatchTransferFrom",
      "outputs": [],
      "stateMutability": "nonpayable",
      "type": "function"
    },
    {
      "inputs": [
        {
          "internalType": "address",
          "name": "from",
          "type": "address"
        },
        {
          "internalType": "address",
          "name": "to",
          "type": "address"
        },
        {
          "internalType": "uint256",
          "name": "id",
          "type": "uint256"
        },
        {
          "internalType": "uint256",
          "name": "amount",
          "type": "uint256"
        },
        {
          "internalType": "bytes",
          "name": "data",
          "type": "bytes"
        }
      ],
      "name": "safeTransferFrom",
      "outputs": [],
      "stateMutability": "nonpayable",
      "type": "function"
    },
    {
      "inputs": [
        {
          "internalType": "address",
          "name": "operator",
          "type": "address"
        },
        {
          "internalType": "bool",
          "name": "approved",
          "type": "bool"
        }
      ],
      "name": "setApprovalForAll",
      "outputs": [],
      "stateMutability": "nonpayable",
      "type": "function"
    },
    {
      "inputs": [
        {
          "internalType": "uint256",
          "name": "",
          "type": "uint256"
        }
      ],
      "name": "uri",
      "outputs": [
        {
          "internalType": "string",
          "name": "",
          "type": "string"
        }
      ],
      "stateMutability": "view",
      "type": "function"
    },
    {
      "inputs": [
        {
          "internalType": "address",
          "name": "_admin",
          "type": "address"
        }
      ],
      "name": "initialize",
      "outputs": [],
      "stateMutability": "nonpayable",
      "type": "function"
    },
    {
      "inputs": [
        {
          "internalType": "bytes4",
          "name": "interfaceId",
          "type": "bytes4"
        }
      ],
      "name": "supportsInterface",
      "outputs": [
        {
          "internalType": "bool",
          "name": "",
          "type": "bool"
        }
      ],
      "stateMutability": "view",
      "type": "function"
    },
    {
      "inputs": [
        {
          "internalType": "string",
          "name": "_ipfsHash",
          "type": "string"
        },
        {
          "internalType": "string",
          "name": "_title",
          "type": "string"
        },
        {
          "internalType": "string",
          "name": "_description",
          "type": "string"
        },
        {
          "internalType": "string",
          "name": "_tags",
          "type": "string"
        }
      ],
      "name": "uploadImage",
      "outputs": [
        {
          "internalType": "bool",
          "name": "_succeed",
          "type": "bool"
        }
      ],
      "stateMutability": "nonpayable",
      "type": "function"
    },
    {
      "inputs": [
        {
          "internalType": "address",
          "name": "account",
          "type": "address"
        },
        {
          "internalType": "string",
          "name": "_username",
          "type": "string"
        }
      ],
      "name": "registerNormalUser",
      "outputs": [],
      "stateMutability": "nonpayable",
      "type": "function"
    },
    {
      "inputs": [
        {
          "internalType": "address",
          "name": "account",
          "type": "address"
        }
      ],
      "name": "upgradePremiumUser",
      "outputs": [],
      "stateMutability": "nonpayable",
      "type": "function"
    },
    {
      "inputs": [
        {
          "internalType": "address",
          "name": "account",
          "type": "address"
        }
      ],
      "name": "deregisterNormalUser",
      "outputs": [],
      "stateMutability": "nonpayable",
      "type": "function"
    },
    {
      "inputs": [
        {
          "internalType": "address",
          "name": "account",
          "type": "address"
        }
      ],
      "name": "deregisterPremiumUser",
      "outputs": [],
      "stateMutability": "nonpayable",
      "type": "function"
    },
    {
      "inputs": [
        {
          "internalType": "address",
          "name": "issuedTo",
          "type": "address"
        },
        {
          "internalType": "uint8",
          "name": "coinTypeId",
          "type": "uint8"
        },
        {
          "internalType": "uint256[]",
          "name": "fungibleCoins",
          "type": "uint256[]"
        }
      ],
      "name": "batchIssue",
      "outputs": [
        {
          "internalType": "uint256[]",
          "name": "ids",
          "type": "uint256[]"
        }
      ],
      "stateMutability": "nonpayable",
      "type": "function"
    },
    {
      "inputs": [
        {
          "internalType": "address",
          "name": "from",
          "type": "address"
        },
        {
          "internalType": "address",
          "name": "to",
          "type": "address"
        },
        {
          "internalType": "uint256[]",
          "name": "coinId",
          "type": "uint256[]"
        },
        {
          "internalType": "uint8",
          "name": "coinTypeId",
          "type": "uint8"
        },
        {
          "internalType": "uint256[]",
          "name": "amount",
          "type": "uint256[]"
        }
      ],
      "name": "batchTransfer",
      "outputs": [],
      "stateMutability": "nonpayable",
      "type": "function"
    },
    {
      "inputs": [
        {
          "internalType": "address",
          "name": "_address",
          "type": "address"
        },
        {
          "internalType": "uint256[]",
          "name": "coinId",
          "type": "uint256[]"
        },
        {
          "internalType": "uint8",
          "name": "coinTypeId",
          "type": "uint8"
        },
        {
          "internalType": "uint256[]",
          "name": "quantity",
          "type": "uint256[]"
        }
      ],
      "name": "burnBatch",
      "outputs": [],
      "stateMutability": "nonpayable",
      "type": "function"
    },
    {
      "inputs": [
        {
          "internalType": "address",
          "name": "userAddress",
          "type": "address"
        }
      ],
      "name": "getUserDetails",
      "outputs": [
        {
          "components": [
            {
              "internalType": "address",
              "name": "userAddress",
              "type": "address"
            },
            {
              "internalType": "uint256",
              "name": "userID",
              "type": "uint256"
            },
            {
              "internalType": "string",
              "name": "userName",
              "type": "string"
            }
          ],
          "internalType": "struct kalonDAO.UserDetails",
          "name": "",
          "type": "tuple"
        }
      ],
      "stateMutability": "view",
      "type": "function"
    },
    {
      "inputs": [],
      "name": "getTotalNumberOfTokens",
      "outputs": [
        {
          "internalType": "uint256",
          "name": "",
          "type": "uint256"
        }
      ],
      "stateMutability": "view",
      "type": "function"
    },
    {
      "inputs": [
        {
          "internalType": "address",
          "name": "coinOwner",
          "type": "address"
        }
      ],
      "name": "getTokenOwnedBy",
      "outputs": [
        {
          "internalType": "uint256[]",
          "name": "coinIds",
          "type": "uint256[]"
        },
        {
          "internalType": "uint256[]",
          "name": "coinAmountInIds",
          "type": "uint256[]"
        }
      ],
      "stateMutability": "view",
      "type": "function"
    },
    {
      "inputs": [
        {
          "internalType": "uint8",
          "name": "coinTypeId",
          "type": "uint8"
        },
        {
          "internalType": "address",
          "name": "account",
          "type": "address"
        }
      ],
      "name": "getTotalAccountBalance",
      "outputs": [
        {
          "internalType": "uint256",
          "name": "",
          "type": "uint256"
        }
      ],
      "stateMutability": "view",
      "type": "function"
    },
    {
      "inputs": [
        {
          "internalType": "address",
          "name": "account",
          "type": "address"
        }
      ],
      "name": "queryRoles",
      "outputs": [
        {
          "components": [
            {
              "internalType": "bool",
              "name": "isAdmin",
              "type": "bool"
            },
            {
              "internalType": "bool",
              "name": "isNormalUser",
              "type": "bool"
            },
            {
              "internalType": "bool",
              "name": "isPremiumUser",
              "type": "bool"
            }
          ],
          "internalType": "struct kalonDAO.Roles",
          "name": "",
          "type": "tuple"
        }
      ],
      "stateMutability": "view",
      "type": "function"
    }
  ],
  "bytecode": "0x608060405234801561001057600080fd5b50613d88806100206000396000f3fe608060405234801561001057600080fd5b50600436106101ef5760003560e01c8063c4d66de81161010f578063e9959149116100a2578063f5942e3111610071578063f5942e31146104c0578063f6bbbcb6146104d3578063f851a440146104e6578063fdfc887314610511576101ef565b8063e99591491461044a578063ef8322fd1461045f578063f1c667b11461049a578063f242432a146104ad576101ef565b8063cc3d967b116100de578063cc3d967b146103e1578063d547741f14610401578063d996b20714610414578063e985e9c514610437576101ef565b8063c4d66de81461035f578063c5e7fc7c14610372578063ca79a5c9146103ad578063cb7f4e03146103c0576101ef565b8063347118af116101875780638dcc5829116101565780638dcc58291461031e57806391d1485414610331578063a217fddf14610344578063a22cb4651461034c576101ef565b8063347118af146102d057806336568abe146102e35780634e1273f4146102f6578063576fd21514610316576101ef565b806312b78c4e116101c357806312b78c4e14610272578063248a9ca3146102875780632eb2c2d6146102aa5780632f2ff15d146102bd576101ef565b8062fdd58e146101f457806301ffc9a71461021a5780630e89341c1461023d57806311e99cc51461025d575b600080fd5b6102076102023660046132fe565b610524565b6040519081526020015b60405180910390f35b61022d61022836600461347a565b6105bc565b6040519015158152602001610211565b61025061024b366004613440565b6105cf565b604051610211919061375f565b610207600080516020613d1383398151915281565b610285610280366004613020565b610663565b005b610207610295366004613440565b60009081526097602052604090206001015490565b6102856102b836600461306c565b610757565b6102856102cb366004613458565b6107a3565b6102856102de366004613020565b6107cd565b6102856102f1366004613458565b6108b5565b610309610304366004613382565b610933565b60405161021191906136e6565b610207610a94565b61028561032c3660046131f8565b610aa5565b61022d61033f366004613458565b610b08565b610207600081565b61028561035a366004613279565b610b33565b61028561036d366004613020565b610b3e565b61020761038036600461354d565b60ff8216600090815260cc602090815260408083206001600160a01b038516845290915290205492915050565b6102856103bb366004613020565b610cc3565b6103d36103ce366004613020565b610dff565b6040516102119291906136f9565b6103f46103ef366004613020565b610f49565b60405161021191906139ea565b61028561040f366004613458565b611034565b6104276104223660046132fe565b611059565b6040516102119493929190613772565b61022d61044536600461303a565b61123e565b610207600080516020613d3383398151915281565b61047261046d366004613020565b61126c565b6040805182511515815260208084015115159082015291810151151590820152606001610211565b6102856104a8366004613111565b6112f3565b6102856104bb366004613196565b611734565b6103096104ce366004613327565b611779565b6102856104e13660046132b3565b611806565b60c9546104f9906001600160a01b031681565b6040516001600160a01b039091168152602001610211565b61022d61051f3660046134b2565b611968565b60006001600160a01b0383166105945760405162461bcd60e51b815260206004820152602a60248201527f455243313135353a2061646472657373207a65726f206973206e6f742061207660448201526930b634b21037bbb732b960b11b60648201526084015b60405180910390fd5b5060009081526065602090815260408083206001600160a01b03949094168352929052205490565b60006105c782611ab4565b90505b919050565b6060606780546105de90613ba6565b80601f016020809104026020016040519081016040528092919081815260200182805461060a90613ba6565b80156106575780601f1061062c57610100808354040283529160200191610657565b820191906000526020600020905b81548152906001019060200180831161063a57829003601f168201915b50505050509050919050565b61066e600033610b08565b61068a5760405162461bcd60e51b815260040161058b9061387e565b6001600160a01b038116600090815260d0602052604090205460ff166106c25760405162461bcd60e51b815260040161058b90613854565b6001600160a01b038116600090815260cb602052604090206106f2600080516020613d1383398151915283611034565b6001600160a01b038216600081815260d0602052604090819020805460ff19169055600183015490517f9a7e3336c25cea8e3b21752464efc23846fc26d7be980dea2ab084b1077a612c9161074b916002860190613a42565b60405180910390a25050565b6001600160a01b03851633148061077357506107738533610445565b61078f5760405162461bcd60e51b815260040161058b906137bd565b61079c8585858585611ad9565b5050505050565b6000828152609760205260409020600101546107be81611c94565b6107c88383611ca1565b505050565b6107d8600033610b08565b6107f45760405162461bcd60e51b815260040161058b9061387e565b6001600160a01b038116600090815260cf602052604090205460ff1661082c5760405162461bcd60e51b815260040161058b90613854565b6001600160a01b038116600090815260cb6020526040902061085c600080516020613d3383398151915283611034565b6001600160a01b038216600081815260cf602052604090819020805460ff19169055600183015490517f0467240fe48790e21f520a75d030edae0a853cb102cd9f26817dccfb30b18f609161074b916002860190613a42565b6001600160a01b03811633146109255760405162461bcd60e51b815260206004820152602f60248201527f416363657373436f6e74726f6c3a2063616e206f6e6c792072656e6f756e636560448201526e103937b632b9903337b91039b2b63360891b606482015260840161058b565b61092f8282611d27565b5050565b606081518351146109985760405162461bcd60e51b815260206004820152602960248201527f455243313135353a206163636f756e747320616e6420696473206c656e677468604482015268040dad2e6dac2e8c6d60bb1b606482015260840161058b565b600083516001600160401b038111156109c157634e487b7160e01b600052604160045260246000fd5b6040519080825280602002602001820160405280156109ea578160200160208202803683370190505b50905060005b8451811015610a8c57610a51858281518110610a1c57634e487b7160e01b600052603260045260246000fd5b6020026020010151858381518110610a4457634e487b7160e01b600052603260045260246000fd5b6020026020010151610524565b828281518110610a7157634e487b7160e01b600052603260045260246000fd5b6020908102919091010152610a8581613c0d565b90506109f0565b509392505050565b6000610a9f60d15490565b90505b90565b6001600160a01b038416331480610ac15750610ac1843361123e565b610af65760405162461bcd60e51b815260040161058b9060208082526004908201526350453a3160e01b604082015260600190565b610b0284848484611d8e565b50505050565b60009182526097602090815260408084206001600160a01b0393909316845291905290205460ff1690565b61092f338383611ee9565b600054610100900460ff1615808015610b5e5750600054600160ff909116105b80610b785750303b158015610b78575060005460ff166001145b610bdb5760405162461bcd60e51b815260206004820152602e60248201527f496e697469616c697a61626c653a20636f6e747261637420697320616c72656160448201526d191e481a5b9a5d1a585b1a5e995960921b606482015260840161058b565b6000805460ff191660011790558015610bfe576000805461ff0019166101001790555b610c1660405180602001604052806000815250611fca565b610c3c600080516020613d33833981519152600080516020613d13833981519152611ffa565b610c47600083612045565b610c5f600080516020613d1383398151915283612045565b60c980546001600160a01b0319166001600160a01b038416179055801561092f576000805461ff0019169055604051600181527f7f26b83ff96e1f2b6a682f133852f6798a09c465da95921460cefb38474024989060200160405180910390a15050565b610cce600033610b08565b610cea5760405162461bcd60e51b815260040161058b9061387e565b6001600160a01b038116600090815260cf602052604090205460ff16610d225760405162461bcd60e51b815260040161058b90613854565b6001600160a01b038116600090815260d0602052604090205460ff1615610d7c5760405162461bcd60e51b815260206004820152600e60248201526d6163636f756e742065786973747360901b604482015260640161058b565b610d94600080516020613d13833981519152826107a3565b6001600160a01b038116600081815260cb6020908152604080832060d090925291829020805460ff1916600190811790915581015491519092917f87aa4587f9df93538883736610894cca13f4709a8a37b375707320d3c00281ef9161074b91906002860190613a42565b60608060ca6000846001600160a01b03166001600160a01b03168152602001908152602001600020805480602002602001604051908101604052809291908181526020018280548015610e7157602002820191906000526020600020905b815481526020019060010190808311610e5d575b5050505050915081516001600160401b03811115610e9f57634e487b7160e01b600052604160045260246000fd5b604051908082528060200260200182016040528015610ec8578160200160208202803683370190505b50905060005b60018351610edc9190613b4c565b8111610f4357610f0684848381518110610a4457634e487b7160e01b600052603260045260246000fd5b828281518110610f2657634e487b7160e01b600052603260045260246000fd5b602090810291909101015280610f3b81613c0d565b915050610ece565b50915091565b6040805160608082018352600080835260208084018290528385018390526001600160a01b03868116835260cb8252918590208551938401865280549092168352600182015490830152600281018054939492939192840191610fab90613ba6565b80601f0160208091040260200160405190810160405280929190818152602001828054610fd790613ba6565b80156110245780601f10610ff957610100808354040283529160200191611024565b820191906000526020600020905b81548152906001019060200180831161100757829003601f168201915b5050505050815250509050919050565b60008281526097602052604090206001015461104f81611c94565b6107c88383611d27565b60ce602052816000526040600020818154811061107557600080fd5b90600052602060002090600402016000915091505080600001805461109990613ba6565b80601f01602080910402602001604051908101604052809291908181526020018280546110c590613ba6565b80156111125780601f106110e757610100808354040283529160200191611112565b820191906000526020600020905b8154815290600101906020018083116110f557829003601f168201915b50505050509080600101805461112790613ba6565b80601f016020809104026020016040519081016040528092919081815260200182805461115390613ba6565b80156111a05780601f10611175576101008083540402835291602001916111a0565b820191906000526020600020905b81548152906001019060200180831161118357829003601f168201915b5050505050908060020180546111b590613ba6565b80601f01602080910402602001604051908101604052809291908181526020018280546111e190613ba6565b801561122e5780601f106112035761010080835404028352916020019161122e565b820191906000526020600020905b81548152906001019060200180831161121157829003601f168201915b5050505050908060030154905084565b6001600160a01b03918216600090815260666020908152604080832093909416825291909152205460ff1690565b60408051606080820183526000808352602080840182905283850182905284519283018552818352820181905292810183905290916112ab9084610b08565b151581526112c7600080516020613d3383398151915284610b08565b151560208201526112e6600080516020613d1383398151915284610b08565b1515604082015292915050565b6001600160a01b0384166113195760405162461bcd60e51b815260040161058b906138a2565b6001600160a01b03851661133f5760405162461bcd60e51b815260040161058b906138a2565b80518351146113795760405162461bcd60e51b815260040161058b9060208082526004908201526344453a3160e01b604082015260600190565b6001600160a01b0385163314806113955750611395853361123e565b6113ca5760405162461bcd60e51b815260040161058b9060208082526004908201526350453a3160e01b604082015260600190565b60005b600182516113db9190613b4c565b81116114db5761141184828151811061140457634e487b7160e01b600052603260045260246000fd5b602002602001015161204f565b6114465760405162461bcd60e51b815260040161058b9060208082526004908201526321229d1960e11b604082015260600190565b81818151811061146657634e487b7160e01b600052603260045260246000fd5b602002602001015161149287868481518110610a4457634e487b7160e01b600052603260045260246000fd5b10156114c95760405162461bcd60e51b815260040161058b9060208082526004908201526342453a3160e01b604082015260600190565b806114d381613c0d565b9150506113cd565b50836001600160a01b0316856001600160a01b03161461151e5761151e85858584604051806040016040528060048152602001630307830360e41b815250610757565b60005b6001825161152f9190613b4c565b81116116df57600060cd600086848151811061155b57634e487b7160e01b600052603260045260246000fd5b602002602001015181526020019081526020016000209050868160010160016101000a8154816001600160a01b0302191690836001600160a01b03160217905550858160020160006101000a8154816001600160a01b0302191690836001600160a01b031602179055506116208383815181106115e857634e487b7160e01b600052603260045260246000fd5b60209081029190910181015160ff8716600090815260cc835260408082206001600160a01b038d168352909352919091205490612070565b60ff8516600090815260cc602090815260408083206001600160a01b038c16845290915290205582516116a59084908490811061166d57634e487b7160e01b600052603260045260246000fd5b60209081029190910181015160ff8716600090815260cc835260408082206001600160a01b038c168352909352919091205490612083565b60ff8516600090815260cc602090815260408083206001600160a01b038b16845290915290205550806116d781613c0d565b915050611521565b50836001600160a01b0316856001600160a01b03167f2e1abfb99698866dfd18d9dcbf22d1eb98cb5f8a4eefd12cf5f345cf2a27be0885846040516117259291906136f9565b60405180910390a35050505050565b6001600160a01b03851633148061175057506117508533610445565b61176c5760405162461bcd60e51b815260040161058b906137bd565b61079c858585858561208f565b6060611786600033610b08565b6117a25760405162461bcd60e51b815260040161058b9061387e565b6117ae338585856121bd565b9050836001600160a01b0316336001600160a01b03167fca28a99455823d3c0cc92d39fd8e0ae2909490a797cfd1e8348301cd8db8db178386866040516117f793929190613727565b60405180910390a39392505050565b611811600033610b08565b61182d5760405162461bcd60e51b815260040161058b9061387e565b6001600160a01b038216600090815260cf602052604090205460ff16156118875760405162461bcd60e51b815260206004820152600e60248201526d6163636f756e742065786973747360901b604482015260640161058b565b61189f600080516020613d33833981519152836107a3565b6118ad60d280546001019055565b60006118b860d25490565b6001600160a01b038416600081815260cb6020908152604090912080546001600160a01b0319169092178255600182018390558451929350909161190491600284019190860190612e7f565b506001600160a01b038416600081815260cf602052604090819020805460ff19166001179055517f16aaa1cf6e97dec2b77c8255033ccc8bc2274c6e9bf0b4ae7a61b5ac7c74cf579061195a9085908790613a29565b60405180910390a250505050565b60008451602e1461197857600080fd5b6000845111801561198c5750610100845111155b61199557600080fd5b6104008351106119a457600080fd5b600084511180156119b85750610100825111155b6119c157600080fd5b604080516080810182528681526020808201879052818301869052426060830181905233600090815260ce83529384208054600181018255908552938290208351805192958594600490910290920192611a1e9284920190612e7f565b506020828101518051611a379260018501920190612e7f565b5060408201518051611a53916002840191602090910190612e7f565b50606082015181600301555050336001600160a01b03167ffef6f0741919c87a08e57fffc0fb3074f56122b88dd63b7cdd69de6647dd7ab488888886604051611a9f9493929190613772565b60405180910390a25060019695505050505050565b60006001600160e01b03198216637965db0b60e01b14806105c757506105c782612551565b8151835114611afa5760405162461bcd60e51b815260040161058b906139a2565b6001600160a01b038416611b205760405162461bcd60e51b815260040161058b906138c8565b3360005b8451811015611c26576000858281518110611b4f57634e487b7160e01b600052603260045260246000fd5b602002602001015190506000858381518110611b7b57634e487b7160e01b600052603260045260246000fd5b60209081029190910181015160008481526065835260408082206001600160a01b038e168352909352919091205490915081811015611bcc5760405162461bcd60e51b815260040161058b9061390d565b60008381526065602090815260408083206001600160a01b038e8116855292528083208585039055908b16825281208054849290611c0b908490613b15565b9250508190555050505080611c1f90613c0d565b9050611b24565b50846001600160a01b0316866001600160a01b0316826001600160a01b03167f4a39dc06d4c0dbc64b70af90fd698a233a518aa5d07e595d983b8c0526c8f7fb8787604051611c769291906136f9565b60405180910390a4611c8c8187878787876125a1565b505050505050565b611c9e8133612715565b50565b611cab8282610b08565b61092f5760008281526097602090815260408083206001600160a01b03851684529091529020805460ff19166001179055611ce33390565b6001600160a01b0316816001600160a01b0316837f2f8788117e7eff1d82e926ec794901d17c78024a50270940304540a733656f0d60405160405180910390a45050565b611d318282610b08565b1561092f5760008281526097602090815260408083206001600160a01b0385168085529252808320805460ff1916905551339285917ff6391f5c32d9c69d2a47ea670b442974b53935d1edc7fd64eb21e047a839171b9190a45050565b8051835114611dca5760405162461bcd60e51b81526020600482015260086024820152670dad2e6dac2e8c6d60c31b604482015260640161058b565b6001600160a01b038416611df05760405162461bcd60e51b815260040161058b906138a2565b611dfb848483612779565b836001600160a01b03167ff3a7a8c66453f2ba310bf7f48f54303d11530ac93f10076ba21030cec80d71858483604051611e369291906136f9565b60405180910390a260005b60018451611e4f9190613b4c565b811161079c57611eb0828281518110611e7857634e487b7160e01b600052603260045260246000fd5b60209081029190910181015160ff8616600090815260cc835260408082206001600160a01b038b168352909352919091205490612070565b60ff8416600090815260cc602090815260408083206001600160a01b038a16845290915290205580611ee181613c0d565b915050611e41565b816001600160a01b0316836001600160a01b03161415611f5d5760405162461bcd60e51b815260206004820152602960248201527f455243313135353a2073657474696e6720617070726f76616c20737461747573604482015268103337b91039b2b63360b91b606482015260840161058b565b6001600160a01b03838116600081815260666020908152604080832094871680845294825291829020805460ff191686151590811790915591519182527f17307eab39ab6107e8899845ad3d59bd9653f200f220920489ca2b5937696c31910160405180910390a3505050565b600054610100900460ff16611ff15760405162461bcd60e51b815260040161058b90613957565b611c9e8161299a565b600082815260976020526040808220600101805490849055905190918391839186917fbd79b86ffe0ab8e8776151514217cd7cacd52c909f66475c3af44e129f0b00ff9190a4505050565b61092f8282611ca1565b60008161205b60d15490565b10612068575060016105ca565b506000919050565b600061207c8284613b4c565b9392505050565b600061207c8284613b15565b6001600160a01b0384166120b55760405162461bcd60e51b815260040161058b906138c8565b3360006120c1856129ca565b905060006120ce856129ca565b905060008681526065602090815260408083206001600160a01b038c168452909152902054858110156121135760405162461bcd60e51b815260040161058b9061390d565b60008781526065602090815260408083206001600160a01b038d8116855292528083208985039055908a16825281208054889290612152908490613b15565b909155505060408051888152602081018890526001600160a01b03808b16928c821692918816917fc3d58168c5ae7397731d063d5bbf3d657854427343f4c083240f7aacaa2d0f62910160405180910390a46121b2848a8a8a8a8a612a23565b505050505050505050565b60606121d7600080516020613d3383398151915285610b08565b806121f557506121f5600080516020613d1383398151915285610b08565b6122385760405162461bcd60e51b81526020600482015260146024820152731858d8dbdd5b9d081d5b9c9959da5cdd195c995960621b604482015260640161058b565b81516001600160401b0381111561225f57634e487b7160e01b600052604160045260246000fd5b604051908082528060200260200182016040528015612288578160200160208202803683370190505b50905060005b6001835161229c9190613b4c565b81116122f0576122b060d180546001019055565b60d1548282815181106122d357634e487b7160e01b600052603260045260246000fd5b6020908102919091010152806122e881613c0d565b91505061228e565b5061230c84828460405180602001604052806000815250612aed565b60005b6001835161231d9190613b4c565b8111612548576001600160a01b038516600090815260ca60205260409020825183908390811061235d57634e487b7160e01b600052603260045260246000fd5b602090810291909101810151825460018101845560009384529190922001556040805160a08101909152825181908490849081106123ab57634e487b7160e01b600052603260045260246000fd5b602002602001015181526020018560ff168152602001876001600160a01b03168152602001866001600160a01b031681526020018483815181106123ff57634e487b7160e01b600052603260045260246000fd5b602002602001015181525060cd600084848151811061242e57634e487b7160e01b600052603260045260246000fd5b602090810291909101810151825281810192909252604090810160002083518155918301516001830180549285015160ff1990931660ff90921691909117610100600160a81b0319166101006001600160a01b039384160217905560608301516002830180546001600160a01b03191691909216179055608090910151600390910155825161250f908490839081106124d757634e487b7160e01b600052603260045260246000fd5b60209081029190910181015160ff8716600090815260cc835260408082206001600160a01b038b168352909352919091205490612083565b60ff8516600090815260cc602090815260408083206001600160a01b038a1684529091529020558061254081613c0d565b91505061230f565b50949350505050565b60006001600160e01b03198216636cdb3d1360e11b148061258257506001600160e01b031982166303a24d0760e21b145b806105c757506301ffc9a760e01b6001600160e01b03198316146105c7565b6001600160a01b0384163b15611c8c5760405163bc197c8160e01b81526001600160a01b0385169063bc197c81906125e59089908990889088908890600401613643565b602060405180830381600087803b1580156125ff57600080fd5b505af192505050801561262f575060408051601f3d908101601f1916820190925261262c91810190613496565b60015b6126dc5761263b613c54565b806308c379a014156126755750612650613c6b565b8061265b5750612677565b8060405162461bcd60e51b815260040161058b919061375f565b505b60405162461bcd60e51b815260206004820152603460248201527f455243313135353a207472616e7366657220746f206e6f6e20455243313135356044820152732932b1b2b4bb32b91034b6b83632b6b2b73a32b960611b606482015260840161058b565b6001600160e01b0319811663bc197c8160e01b1461270c5760405162461bcd60e51b815260040161058b9061380c565b50505050505050565b61271f8282610b08565b61092f57612737816001600160a01b03166014612c8f565b612742836020612c8f565b6040516020016127539291906135ce565b60408051601f198184030181529082905262461bcd60e51b825261058b9160040161375f565b6001600160a01b0383166127db5760405162461bcd60e51b815260206004820152602360248201527f455243313135353a206275726e2066726f6d20746865207a65726f206164647260448201526265737360e81b606482015260840161058b565b80518251146127fc5760405162461bcd60e51b815260040161058b906139a2565b604080516020810190915260009081905233905b835181101561292d57600084828151811061283b57634e487b7160e01b600052603260045260246000fd5b60200260200101519050600084838151811061286757634e487b7160e01b600052603260045260246000fd5b60209081029190910181015160008481526065835260408082206001600160a01b038c1683529093529190912054909150818110156128f45760405162461bcd60e51b8152602060048201526024808201527f455243313135353a206275726e20616d6f756e7420657863656564732062616c604482015263616e636560e01b606482015260840161058b565b60009283526065602090815260408085206001600160a01b038b168652909152909220910390558061292581613c0d565b915050612810565b5060006001600160a01b0316846001600160a01b0316826001600160a01b03167f4a39dc06d4c0dbc64b70af90fd698a233a518aa5d07e595d983b8c0526c8f7fb868660405161297e9291906136f9565b60405180910390a4604080516020810190915260009052610b02565b600054610100900460ff166129c15760405162461bcd60e51b815260040161058b90613957565b611c9e81612e70565b60408051600180825281830190925260609160009190602080830190803683370190505090508281600081518110612a1257634e487b7160e01b600052603260045260246000fd5b602090810291909101015292915050565b6001600160a01b0384163b15611c8c5760405163f23a6e6160e01b81526001600160a01b0385169063f23a6e6190612a6790899089908890889088906004016136a1565b602060405180830381600087803b158015612a8157600080fd5b505af1925050508015612ab1575060408051601f3d908101601f19168201909252612aae91810190613496565b60015b612abd5761263b613c54565b6001600160e01b0319811663f23a6e6160e01b1461270c5760405162461bcd60e51b815260040161058b9061380c565b6001600160a01b038416612b4d5760405162461bcd60e51b815260206004820152602160248201527f455243313135353a206d696e7420746f20746865207a65726f206164647265736044820152607360f81b606482015260840161058b565b8151835114612b6e5760405162461bcd60e51b815260040161058b906139a2565b3360005b8451811015612c2757838181518110612b9b57634e487b7160e01b600052603260045260246000fd5b602002602001015160656000878481518110612bc757634e487b7160e01b600052603260045260246000fd5b602002602001015181526020019081526020016000206000886001600160a01b03166001600160a01b031681526020019081526020016000206000828254612c0f9190613b15565b90915550819050612c1f81613c0d565b915050612b72565b50846001600160a01b031660006001600160a01b0316826001600160a01b03167f4a39dc06d4c0dbc64b70af90fd698a233a518aa5d07e595d983b8c0526c8f7fb8787604051612c789291906136f9565b60405180910390a461079c816000878787876125a1565b60606000612c9e836002613b2d565b612ca9906002613b15565b6001600160401b03811115612cce57634e487b7160e01b600052604160045260246000fd5b6040519080825280601f01601f191660200182016040528015612cf8576020820181803683370190505b509050600360fc1b81600081518110612d2157634e487b7160e01b600052603260045260246000fd5b60200101906001600160f81b031916908160001a905350600f60fb1b81600181518110612d5e57634e487b7160e01b600052603260045260246000fd5b60200101906001600160f81b031916908160001a9053506000612d82846002613b2d565b612d8d906001613b15565b90505b6001811115612e21576f181899199a1a9b1b9c1cb0b131b232b360811b85600f1660108110612dcf57634e487b7160e01b600052603260045260246000fd5b1a60f81b828281518110612df357634e487b7160e01b600052603260045260246000fd5b60200101906001600160f81b031916908160001a90535060049490941c93612e1a81613b8f565b9050612d90565b50831561207c5760405162461bcd60e51b815260206004820181905260248201527f537472696e67733a20686578206c656e67746820696e73756666696369656e74604482015260640161058b565b805161092f9060679060208401905b828054612e8b90613ba6565b90600052602060002090601f016020900481019282612ead5760008555612ef3565b82601f10612ec657805160ff1916838001178555612ef3565b82800160010185558215612ef3579182015b82811115612ef3578251825591602001919060010190612ed8565b50612eff929150612f03565b5090565b5b80821115612eff5760008155600101612f04565b80356001600160a01b03811681146105ca57600080fd5b600082601f830112612f3f578081fd5b81356020612f4c82613af2565b604051612f598282613be1565b838152828101915085830183850287018401881015612f76578586fd5b855b85811015612f9457813584529284019290840190600101612f78565b5090979650505050505050565b600082601f830112612fb1578081fd5b81356001600160401b03811115612fca57612fca613c3e565b604051612fe1601f8301601f191660200182613be1565b818152846020838601011115612ff5578283fd5b816020850160208301379081016020019190915292915050565b803560ff811681146105ca57600080fd5b600060208284031215613031578081fd5b61207c82612f18565b6000806040838503121561304c578081fd5b61305583612f18565b915061306360208401612f18565b90509250929050565b600080600080600060a08688031215613083578081fd5b61308c86612f18565b945061309a60208701612f18565b935060408601356001600160401b03808211156130b5578283fd5b6130c189838a01612f2f565b945060608801359150808211156130d6578283fd5b6130e289838a01612f2f565b935060808801359150808211156130f7578283fd5b5061310488828901612fa1565b9150509295509295909350565b600080600080600060a08688031215613128578081fd5b61313186612f18565b945061313f60208701612f18565b935060408601356001600160401b038082111561315a578283fd5b61316689838a01612f2f565b94506131746060890161300f565b93506080880135915080821115613189578283fd5b5061310488828901612f2f565b600080600080600060a086880312156131ad578081fd5b6131b686612f18565b94506131c460208701612f18565b9350604086013592506060860135915060808601356001600160401b038111156131ec578182fd5b61310488828901612fa1565b6000806000806080858703121561320d578384fd5b61321685612f18565b935060208501356001600160401b0380821115613231578485fd5b61323d88838901612f2f565b945061324b6040880161300f565b93506060870135915080821115613260578283fd5b5061326d87828801612f2f565b91505092959194509250565b6000806040838503121561328b578182fd5b61329483612f18565b9150602083013580151581146132a8578182fd5b809150509250929050565b600080604083850312156132c5578182fd5b6132ce83612f18565b915060208301356001600160401b038111156132e8578182fd5b6132f485828601612fa1565b9150509250929050565b60008060408385031215613310578182fd5b61331983612f18565b946020939093013593505050565b60008060006060848603121561333b578081fd5b61334484612f18565b92506133526020850161300f565b915060408401356001600160401b0381111561336c578182fd5b61337886828701612f2f565b9150509250925092565b60008060408385031215613394578182fd5b82356001600160401b03808211156133aa578384fd5b818501915085601f8301126133bd578384fd5b813560206133ca82613af2565b6040516133d78282613be1565b8381528281019150858301838502870184018b10156133f4578889fd5b8896505b8487101561341d5761340981612f18565b8352600196909601959183019183016133f8565b5096505086013592505080821115613433578283fd5b506132f485828601612f2f565b600060208284031215613451578081fd5b5035919050565b6000806040838503121561346a578182fd5b8235915061306360208401612f18565b60006020828403121561348b578081fd5b813561207c81613cfc565b6000602082840312156134a7578081fd5b815161207c81613cfc565b600080600080608085870312156134c7578182fd5b84356001600160401b03808211156134dd578384fd5b6134e988838901612fa1565b955060208701359150808211156134fe578384fd5b61350a88838901612fa1565b9450604087013591508082111561351f578384fd5b61352b88838901612fa1565b93506060870135915080821115613540578283fd5b5061326d87828801612fa1565b6000806040838503121561355f578182fd5b6130558361300f565b6000815180845260208085019450808401835b838110156135975781518752958201959082019060010161357b565b509495945050505050565b600081518084526135ba816020860160208601613b63565b601f01601f19169290920160200192915050565b60007f416363657373436f6e74726f6c3a206163636f756e742000000000000000000082528351613606816017850160208801613b63565b7001034b99036b4b9b9b4b733903937b6329607d1b6017918401918201528351613637816028840160208801613b63565b01602801949350505050565b6001600160a01b0386811682528516602082015260a06040820181905260009061366f90830186613568565b82810360608401526136818186613568565b9050828103608084015261369581856135a2565b98975050505050505050565b6001600160a01b03868116825285166020820152604081018490526060810183905260a0608082018190526000906136db908301846135a2565b979650505050505050565b60006020825261207c6020830184613568565b60006040825261370c6040830185613568565b828103602084015261371e8185613568565b95945050505050565b60006060825261373a6060830186613568565b60ff8516602084015282810360408401526137558185613568565b9695505050505050565b60006020825261207c60208301846135a2565b60006080825261378560808301876135a2565b828103602084015261379781876135a2565b905082810360408401526137ab81866135a2565b91505082606083015295945050505050565b6020808252602f908201527f455243313135353a2063616c6c6572206973206e6f7420746f6b656e206f776e60408201526e195c881b9bdc88185c1c1c9bdd9959608a1b606082015260800190565b60208082526028908201527f455243313135353a204552433131353552656365697665722072656a656374656040820152676420746f6b656e7360c01b606082015260800190565b60208082526010908201526f6163636f756e7420696e61637469766560801b604082015260600190565b6020808252600a908201526961646d696e206f6e6c7960b01b604082015260600190565b6020808252600c908201526b6e756c6c206164647265737360a01b604082015260600190565b60208082526025908201527f455243313135353a207472616e7366657220746f20746865207a65726f206164604082015264647265737360d81b606082015260800190565b6020808252602a908201527f455243313135353a20696e73756666696369656e742062616c616e636520666f60408201526939103a3930b739b332b960b11b606082015260800190565b6020808252602b908201527f496e697469616c697a61626c653a20636f6e7472616374206973206e6f74206960408201526a6e697469616c697a696e6760a81b606082015260800190565b60208082526028908201527f455243313135353a2069647320616e6420616d6f756e7473206c656e677468206040820152670dad2e6dac2e8c6d60c31b606082015260800190565b60006020825260018060a01b038351166020830152602083015160408301526040830151606080840152613a2160808401826135a2565b949350505050565b600083825260406020830152613a2160408301846135a2565b6000838252602060408184015281845483600282049050600180831680613a6a57607f831692505b858310811415613a8857634e487b7160e01b87526022600452602487fd5b6040880183905260608801818015613aa75760018114613ab857613ae2565b60ff19861682528782019650613ae2565b60008b815260209020895b86811015613adc57815484820152908501908901613ac3565b83019750505b50949a9950505050505050505050565b60006001600160401b03821115613b0b57613b0b613c3e565b5060209081020190565b60008219821115613b2857613b28613c28565b500190565b6000816000190483118215151615613b4757613b47613c28565b500290565b600082821015613b5e57613b5e613c28565b500390565b60005b83811015613b7e578181015183820152602001613b66565b83811115610b025750506000910152565b600081613b9e57613b9e613c28565b506000190190565b600281046001821680613bba57607f821691505b60208210811415613bdb57634e487b7160e01b600052602260045260246000fd5b50919050565b601f8201601f191681016001600160401b0381118282101715613c0657613c06613c3e565b6040525050565b6000600019821415613c2157613c21613c28565b5060010190565b634e487b7160e01b600052601160045260246000fd5b634e487b7160e01b600052604160045260246000fd5b600060033d1115610aa257600481823e5160e01c90565b600060443d1015613c7b57610aa2565b6040516003193d81016004833e81513d6001600160401b038160248401118184111715613cac575050505050610aa2565b8285019150815181811115613cc657505050505050610aa2565b843d8701016020828501011115613ce257505050505050610aa2565b613cf160208286010187613be1565b509094505050505090565b6001600160e01b031981168114611c9e57600080fdfe4b0b6d95ad81fc7121665c5df17fc6ca31bf066b654a127f585e289858a6da0b13e31188d81b941f4c541528790db4031bef078b78d364bde6fc2d4e5ad79e01a2646970667358221220374ba7cc9b8a98e817326974f72b83e3b3c14e01ac31028dfe69d8334665ab0764736f6c63430008020033",
  "immutableReferences": {},
  "source": "// SPDX-License-Identifier: Apache-2.0\npragma solidity ^0.8.0;\n\nimport \"@openzeppelin/contracts-upgradeable/utils/math/SafeMathUpgradeable.sol\";\nimport \"@openzeppelin/contracts-upgradeable/token/ERC1155/ERC1155Upgradeable.sol\";\nimport \"@openzeppelin/contracts-upgradeable/access/AccessControlUpgradeable.sol\";\nimport \"@openzeppelin/contracts-upgradeable/utils/CountersUpgradeable.sol\";\nimport \"@openzeppelin/contracts-upgradeable/proxy/utils/Initializable.sol\";\nimport \"@openzeppelin/contracts-upgradeable/token/ERC1155/ERC1155Upgradeable.sol\";\n\ncontract kalonDAO is\n    Initializable,\n    ERC1155Upgradeable,\n    AccessControlUpgradeable\n{\n    using SafeMathUpgradeable for uint256;\n    using CountersUpgradeable for CountersUpgradeable.Counter;\n\n    address public admin;\n    bytes32 public constant NORMAL_USER = keccak256(\"NORMAL_USER\");\n    bytes32 public constant PREMIUM_USER = keccak256(\"PREMIUM_USER\");\n\n    struct kalonCoin {\n        uint256 coinId;\n        uint8 coinTypeId;\n        address issuedBy;\n        address issuedTo;\n        uint256 value;\n    }\n\n    struct Roles {\n        bool isAdmin;\n        bool isNormalUser;\n        bool isPremiumUser;\n    }\n\n    struct Image {\n        string ipfsHash;\n        string title;\n        string description;\n        uint256 uploadTime;\n    }\n\n    struct UserDetails {\n        address userAddress;\n        uint256 userID;\n        string userName;\n    }\n\n    modifier onlyAdmin() {\n        require(hasRole(DEFAULT_ADMIN_ROLE, msg.sender), \"admin only\");\n        _;\n    }\n\n    // Introduce only access privileges by account modifier to certain functions\n    modifier accessPrivilegesByAccount(address account) {\n        require(\n            hasRole(PREMIUM_USER, msg.sender) || account == msg.sender,\n            \"require elevated priviledge\"\n        );\n        _;\n    }\n\n    mapping(address => uint256[]) internal userOwnedCoins;\n    mapping(address => UserDetails) internal _userDetails;\n    mapping(uint8 => mapping(address => uint256)) internal _accountBalance;\n    mapping(uint256 => kalonCoin) internal _coinDetails;\n    // map owner to the image nft stored on ipfs\n    mapping(address => Image[]) public ownerMapImage;\n    mapping(address => bool) internal normalUserExist;\n    mapping(address => bool) internal premiumUserExist;\n\n    event ImageUploaded(\n        address indexed _owner,\n        string _ipfsHash,\n        string _title,\n        string _description,\n        uint256 _uploadTime\n    );\n\n    event RegisteredNormalUser(\n        address indexed account,\n        uint256 userID,\n        string username\n    );\n    event DeregisteredNormalUser(\n        address indexed account,\n        uint256 userID,\n        string username\n    );\n    event RegisteredPremiumUser(\n        address indexed account,\n        uint256 userID,\n        string username\n    );\n    event DeregisteredPremiumUser(\n        address indexed account,\n        uint256 userID,\n        string username\n    );\n\n    event CoinsCreatedBatch(\n        uint256[] ids,\n        uint8 coinTypeId,\n        address indexed issuedBy,\n        address indexed issuedTo,\n        uint256[] fungibleCoins\n    );\n\n    event CoinTransferredBatch(\n        address indexed from,\n        address indexed to,\n        uint256[] coinIds,\n        uint256[] amount\n    );\n\n    event CoinRetiredBatch(\n        address indexed from,\n        uint256[] coinIds,\n        uint256[] amount\n    );\n\n    /**\n     * @dev Initializes the contract\n     * @param _admin admin hexademical address\n     * Input hexadecimal address, initializes the contract, and auto assigns the high-level access roles for admin address\n     */\n    function initialize(address _admin) public initializer {\n        // Trigger ERC1155 constructor\n\n        __ERC1155_init(\"\");\n\n        _setRoleAdmin(NORMAL_USER, PREMIUM_USER);\n        _setupRole(DEFAULT_ADMIN_ROLE, _admin);\n        _setupRole(PREMIUM_USER, _admin);\n        admin = _admin;\n    }\n\n    /**\n     * @dev Derived contract to overrirde interface support\n     * @param interfaceId bytes4 id for current interface\n     */\n    function supportsInterface(bytes4 interfaceId)\n        public\n        view\n        virtual\n        override(ERC1155Upgradeable, AccessControlUpgradeable)\n        returns (bool)\n    {\n        return super.supportsInterface(interfaceId);\n    }\n\n    function uploadImage(\n        string memory _ipfsHash,\n        string memory _title,\n        string memory _description,\n        string memory _tags\n    ) external returns (bool _succeed) {\n        require(bytes(_ipfsHash).length == 46);\n        require(bytes(_title).length > 0 && bytes(_title).length <= 256);\n        require(bytes(_description).length < 1024);\n        require(bytes(_title).length > 0 && bytes(_tags).length <= 256);\n        uint256 uploadTime = block.timestamp;\n        Image memory image = Image(_ipfsHash, _title, _description, uploadTime);\n        ownerMapImage[msg.sender].push(image);\n        emit ImageUploaded(\n            msg.sender,\n            _ipfsHash,\n            _title,\n            _description,\n            uploadTime\n        );\n        _succeed = true;\n    }\n\n    CountersUpgradeable.Counter internal _numOfUniqueCoins;\n    CountersUpgradeable.Counter internal _numOfUniqueUsers;\n\n    /**\n     * @dev To check if the token exists on the contract\n     * @param coinId unique token ID assigned to the certificate\n     * Check via internal counter. If counter is higher than coinId, then yes coinId exists\n     */\n    function coinExists(uint256 coinId) internal view returns (bool) {\n        if (_numOfUniqueCoins.current() >= coinId) return true;\n        return false;\n    }\n\n    function registerNormalUser(address account, string memory _username)\n        external\n        onlyAdmin\n    {\n        require(!normalUserExist[account], \"account exists\");\n        grantRole(NORMAL_USER, account);\n        _numOfUniqueUsers.increment();\n        uint256 id = _numOfUniqueUsers.current();\n\n        UserDetails storage userInfo = _userDetails[account];\n        userInfo.userAddress = account;\n        userInfo.userID = id;\n        userInfo.userName = _username;\n\n        normalUserExist[account] = true;\n        emit RegisteredNormalUser(account, id, _username);\n    }\n\n    function upgradePremiumUser(address account) external onlyAdmin {\n        require(normalUserExist[account], \"account inactive\");\n        require(!premiumUserExist[account], \"account exists\");\n        grantRole(PREMIUM_USER, account);\n        UserDetails storage userInfo = _userDetails[account];\n\n        premiumUserExist[account] = true;\n        emit RegisteredPremiumUser(account, userInfo.userID, userInfo.userName);\n    }\n\n    function deregisterNormalUser(address account) external onlyAdmin {\n        require(normalUserExist[account], \"account inactive\");\n        UserDetails storage userInfo = _userDetails[account];\n        super.revokeRole(NORMAL_USER, account);\n        normalUserExist[account] = false;\n        emit DeregisteredNormalUser(\n            account,\n            userInfo.userID,\n            userInfo.userName\n        );\n    }\n\n    function deregisterPremiumUser(address account) external onlyAdmin {\n        require(premiumUserExist[account], \"account inactive\");\n        UserDetails storage userInfo = _userDetails[account];\n        super.revokeRole(PREMIUM_USER, account);\n        premiumUserExist[account] = false;\n        emit DeregisteredPremiumUser(\n            account,\n            userInfo.userID,\n            userInfo.userName\n        );\n    }\n\n    function _batchIssue(\n        address _issuedBy,\n        address _issuedTo,\n        uint8 _coinTypeId,\n        uint256[] memory _fungibleCoins\n    ) internal returns (uint256[] memory ids) {\n        require(\n            hasRole(NORMAL_USER, _issuedTo) || hasRole(PREMIUM_USER, _issuedTo),\n            \"account unregistered\"\n        );\n        ids = new uint256[](_fungibleCoins.length);\n        for (uint256 i = 0; i <= _fungibleCoins.length - 1; i++) {\n            _numOfUniqueCoins.increment();\n            ids[i] = _numOfUniqueCoins.current();\n        }\n        super._mintBatch(_issuedTo, ids, _fungibleCoins, \"\");\n        for (uint256 i = 0; i <= _fungibleCoins.length - 1; i++) {\n            userOwnedCoins[_issuedTo].push(ids[i]);\n            _coinDetails[ids[i]] = kalonCoin({\n                coinId: ids[i],\n                coinTypeId: _coinTypeId,\n                issuedBy: _issuedBy,\n                issuedTo: _issuedTo,\n                value: _fungibleCoins[i]\n            });\n            _accountBalance[_coinTypeId][_issuedTo] = _accountBalance[\n                _coinTypeId\n            ][_issuedTo].add(_fungibleCoins[i]);\n        }\n\n        return ids;\n    }\n\n    function batchIssue(\n        address issuedTo,\n        uint8 coinTypeId,\n        uint256[] memory fungibleCoins\n    ) external onlyAdmin returns (uint256[] memory ids) {\n        ids = _batchIssue(msg.sender, issuedTo, coinTypeId, fungibleCoins);\n        emit CoinsCreatedBatch(\n            ids,\n            coinTypeId,\n            msg.sender,\n            issuedTo,\n            fungibleCoins\n        );\n    }\n\n    function batchTransfer(\n        address from,\n        address to,\n        uint256[] memory coinId,\n        uint8 coinTypeId,\n        uint256[] memory amount\n    ) external {\n        require(to != address(0x0), \"null address\");\n        require(from != address(0x0), \"null address\");\n        require(coinId.length == amount.length, \"DE:1\");\n        require(\n            from == msg.sender || super.isApprovedForAll(from, msg.sender),\n            \"PE:1\"\n        );\n        for (uint256 i = 0; i <= amount.length - 1; i++) {\n            require(coinExists(coinId[i]), \"BE:2\");\n            require(super.balanceOf(from, coinId[i]) >= amount[i], \"BE:1\");\n        }\n        if (from != to) {\n            super.safeBatchTransferFrom(from, to, coinId, amount, \"0x00\");\n        }\n        for (uint256 i = 0; i <= amount.length - 1; i++) {\n            kalonCoin storage coinInfo = _coinDetails[coinId[i]];\n            coinInfo.issuedBy = from;\n            coinInfo.issuedTo = to;\n            _accountBalance[coinTypeId][from] = _accountBalance[coinTypeId][\n                from\n            ].sub(amount[i]);\n            _accountBalance[coinTypeId][to] = _accountBalance[coinTypeId][to]\n                .add(amount[i]);\n        }\n        emit CoinTransferredBatch(from, to, coinId, amount);\n    }\n\n    function _burnBatch(\n        address _address,\n        uint256[] memory _coinId,\n        uint8 _coinTypeId,\n        uint256[] memory _quantity\n    ) internal {\n        require(_coinId.length == _quantity.length, \"mismatch\");\n        require(_address != address(0x0), \"null address\");\n        super._burnBatch(_address, _coinId, _quantity);\n        emit CoinRetiredBatch(_address, _coinId, _quantity);\n        for (uint256 i = 0; i <= _coinId.length - 1; i++) {\n            _accountBalance[_coinTypeId][_address] = _accountBalance[\n                _coinTypeId\n            ][_address].sub(_quantity[i]);\n        }\n    }\n\n    function burnBatch(\n        address _address,\n        uint256[] memory coinId,\n        uint8 coinTypeId,\n        uint256[] memory quantity\n    ) external {\n        // message sender must have operator rights over any operations wrt to retirement account\n        require(\n            _address == msg.sender ||\n                super.isApprovedForAll(_address, msg.sender),\n            \"PE:1\"\n        );\n        _burnBatch(_address, coinId, coinTypeId, quantity);\n    }\n\n    function getUserDetails(address userAddress)\n        external\n        view\n        returns (UserDetails memory)\n    {\n        return _userDetails[userAddress];\n    }\n\n    function getTotalNumberOfTokens() external view returns (uint256) {\n        return _numOfUniqueCoins.current();\n    }\n\n    function getTokenOwnedBy(address coinOwner)\n        external\n        view\n        returns (uint256[] memory coinIds, uint256[] memory coinAmountInIds)\n    {\n        coinIds = userOwnedCoins[coinOwner];\n\n        coinAmountInIds = new uint256[](coinIds.length);\n\n        for (uint256 i = 0; i <= coinIds.length - 1; i++) {\n            coinAmountInIds[i] = super.balanceOf(coinOwner, coinIds[i]);\n        }\n    }\n\n    function getTotalAccountBalance(uint8 coinTypeId, address account)\n        external\n        view\n        returns (uint256)\n    {\n        return _accountBalance[coinTypeId][account];\n    }\n\n    function queryRoles(address account) external view returns (Roles memory) {\n        Roles memory roles;\n        roles.isAdmin = hasRole(DEFAULT_ADMIN_ROLE, account);\n        roles.isNormalUser = hasRole(NORMAL_USER, account);\n        roles.isPremiumUser = hasRole(PREMIUM_USER, account);\n        return roles;\n    }\n}\n",
  "sourcePath": "/home/lukecyb/ADX/blockchamp/contracts/rewards.sol",
  "compiler": {
    "name": "solc",
    "version": "0.8.2+commit.661d1103.Emscripten.clang"
  },
  "schemaVersion": "3.4.7",
  "updatedAt": "2022-08-23T12:50:04.775Z",
  "devdoc": {
    "kind": "dev",
    "methods": {
      "balanceOf(address,uint256)": {
        "details": "See {IERC1155-balanceOf}. Requirements: - `account` cannot be the zero address."
      },
      "balanceOfBatch(address[],uint256[])": {
        "details": "See {IERC1155-balanceOfBatch}. Requirements: - `accounts` and `ids` must have the same length."
      },
      "getRoleAdmin(bytes32)": {
        "details": "Returns the admin role that controls `role`. See {grantRole} and {revokeRole}. To change a role's admin, use {_setRoleAdmin}."
      },
      "grantRole(bytes32,address)": {
        "details": "Grants `role` to `account`. If `account` had not been already granted `role`, emits a {RoleGranted} event. Requirements: - the caller must have ``role``'s admin role. May emit a {RoleGranted} event."
      },
      "hasRole(bytes32,address)": {
        "details": "Returns `true` if `account` has been granted `role`."
      },
      "initialize(address)": {
        "details": "Initializes the contract",
        "params": {
          "_admin": "admin hexademical address Input hexadecimal address, initializes the contract, and auto assigns the high-level access roles for admin address"
        }
      },
      "isApprovedForAll(address,address)": {
        "details": "See {IERC1155-isApprovedForAll}."
      },
      "renounceRole(bytes32,address)": {
        "details": "Revokes `role` from the calling account. Roles are often managed via {grantRole} and {revokeRole}: this function's purpose is to provide a mechanism for accounts to lose their privileges if they are compromised (such as when a trusted device is misplaced). If the calling account had been revoked `role`, emits a {RoleRevoked} event. Requirements: - the caller must be `account`. May emit a {RoleRevoked} event."
      },
      "revokeRole(bytes32,address)": {
        "details": "Revokes `role` from `account`. If `account` had been granted `role`, emits a {RoleRevoked} event. Requirements: - the caller must have ``role``'s admin role. May emit a {RoleRevoked} event."
      },
      "safeBatchTransferFrom(address,address,uint256[],uint256[],bytes)": {
        "details": "See {IERC1155-safeBatchTransferFrom}."
      },
      "safeTransferFrom(address,address,uint256,uint256,bytes)": {
        "details": "See {IERC1155-safeTransferFrom}."
      },
      "setApprovalForAll(address,bool)": {
        "details": "See {IERC1155-setApprovalForAll}."
      },
      "supportsInterface(bytes4)": {
        "details": "Derived contract to overrirde interface support",
        "params": {
          "interfaceId": "bytes4 id for current interface"
        }
      },
      "uri(uint256)": {
        "details": "See {IERC1155MetadataURI-uri}. This implementation returns the same URI for *all* token types. It relies on the token type ID substitution mechanism https://eips.ethereum.org/EIPS/eip-1155#metadata[defined in the EIP]. Clients calling this function must replace the `\\{id\\}` substring with the actual token type ID."
      }
    },
    "version": 1
  },
  "userdoc": {
    "kind": "user",
    "methods": {},
    "version": 1
  }
}